:1000000012C039C038C037C036C035C034C033C064
:1000100032C031C030C02FC02EC02DC02CC00060F7
:1000200000660001BA0011241FBECFE5D2E0DEBF9A
:10003000CDBFEEE1F0E040E017C0B591A59135915C
:100040002591059107FD0CC095918591EF01F92F40
:10005000E82F05900D92A217B307D9F7FE0104C04F
:100060001D92A217B307E1F7E532F40731F71CD070
:060070009CC0F894FFCFD4
:02007600C4CFF5
:1000780065E670E080E837D064E670E080E833D069
:1000880063E670E080E82FD062E670E080E82BD06D
:1000980061E670E080E827D060E670E080E823C081
:1000A800E7DF65E670E080E858D064E670E080E855
:1000B80054D063E670E080E850D062E670E080E8F3
:1000C8004CD061E670E080E848D060E670E080E8F7
:1000D80044D02FE986E891E0215080409040E1F734
:0600E80000C00000DECFA5
:1000EE00A82FCB010097A10579F1FC012491A7FD62
:1000FE0020812770422F50E0463051053CF5FC011F
:10010E008491A7FD808183FB992790F983FF03C01B
:10011E00913071F01DC037B381E090E002C0880FBE
:10012E00991F2A95E2F78095832387BB81E0089576
:10013E0037B381E090E002C0880F991F2A95E2F74D
:10014E00832B87BB81E0089580E0089580E00895B9
:04015E0080E00895A0
:10016200611571058105C9F0FB01982F849197FDF6
:1001720080818770282F30E02630310584F448B31F
:1001820021E030E0B90102C0660F771F8A95E2F7DD
:10019200CB01842788BB81E0089580E0089580E048
:0201A2000895BE
:0201A4000895BC
:0201A6000895BA
:0201A8000895B8
:0E01AA00EC01FCDFFADFCE01FADFCE0100D05F
:0201B8005CDF0A
:0101BA000D37
:0101BB000C37
:0101BC000B37
:0101BD000A37
:0101BE000937
:0101BF000837
:00000001FF
